{
  "_format": "hh-sol-artifact-1",
  "contractName": "RescueDAO",
  "sourceName": "contracts/RescueDAO.sol",
  "abi": [
    {
      "inputs": [
        {
          "internalType": "address",
          "name": "_usdcAddress",
          "type": "address"
        }
      ],
      "stateMutability": "nonpayable",
      "type": "constructor"
    },
    {
      "inputs": [
        {
          "internalType": "address",
          "name": "owner",
          "type": "address"
        }
      ],
      "name": "OwnableInvalidOwner",
      "type": "error"
    },
    {
      "inputs": [
        {
          "internalType": "address",
          "name": "account",
          "type": "address"
        }
      ],
      "name": "OwnableUnauthorizedAccount",
      "type": "error"
    },
    {
      "anonymous": false,
      "inputs": [
        {
          "indexed": true,
          "internalType": "address",
          "name": "recipient",
          "type": "address"
        },
        {
          "indexed": false,
          "internalType": "uint256",
          "name": "amount",
          "type": "uint256"
        }
      ],
      "name": "FundsReleased",
      "type": "event"
    },
    {
      "anonymous": false,
      "inputs": [
        {
          "indexed": true,
          "internalType": "address",
          "name": "previousOwner",
          "type": "address"
        },
        {
          "indexed": true,
          "internalType": "address",
          "name": "newOwner",
          "type": "address"
        }
      ],
      "name": "OwnershipTransferred",
      "type": "event"
    },
    {
      "anonymous": false,
      "inputs": [
        {
          "indexed": true,
          "internalType": "address",
          "name": "recipient",
          "type": "address"
        },
        {
          "indexed": false,
          "internalType": "uint256",
          "name": "amount",
          "type": "uint256"
        }
      ],
      "name": "USDCReleased",
      "type": "event"
    },
    {
      "inputs": [],
      "name": "getBalance",
      "outputs": [
        {
          "internalType": "uint256",
          "name": "",
          "type": "uint256"
        }
      ],
      "stateMutability": "view",
      "type": "function"
    },
    {
      "inputs": [],
      "name": "getUSDCBalance",
      "outputs": [
        {
          "internalType": "uint256",
          "name": "",
          "type": "uint256"
        }
      ],
      "stateMutability": "view",
      "type": "function"
    },
    {
      "inputs": [],
      "name": "owner",
      "outputs": [
        {
          "internalType": "address",
          "name": "",
          "type": "address"
        }
      ],
      "stateMutability": "view",
      "type": "function"
    },
    {
      "inputs": [
        {
          "internalType": "address payable",
          "name": "recipient",
          "type": "address"
        },
        {
          "internalType": "uint256",
          "name": "amount",
          "type": "uint256"
        }
      ],
      "name": "release",
      "outputs": [
        {
          "internalType": "bool",
          "name": "",
          "type": "bool"
        }
      ],
      "stateMutability": "nonpayable",
      "type": "function"
    },
    {
      "inputs": [
        {
          "internalType": "address",
          "name": "recipient",
          "type": "address"
        },
        {
          "internalType": "uint256",
          "name": "amount",
          "type": "uint256"
        }
      ],
      "name": "releaseUSDC",
      "outputs": [
        {
          "internalType": "bool",
          "name": "",
          "type": "bool"
        }
      ],
      "stateMutability": "nonpayable",
      "type": "function"
    },
    {
      "inputs": [],
      "name": "renounceOwnership",
      "outputs": [],
      "stateMutability": "nonpayable",
      "type": "function"
    },
    {
      "inputs": [
        {
          "internalType": "address",
          "name": "newOwner",
          "type": "address"
        }
      ],
      "name": "transferOwnership",
      "outputs": [],
      "stateMutability": "nonpayable",
      "type": "function"
    },
    {
      "inputs": [],
      "name": "usdcToken",
      "outputs": [
        {
          "internalType": "contract IERC20",
          "name": "",
          "type": "address"
        }
      ],
      "stateMutability": "view",
      "type": "function"
    },
    {
      "stateMutability": "payable",
      "type": "receive"
    }
  ],
  "bytecode": "0x608060405234801561001057600080fd5b5060405161071138038061071183398101604081905261002f916100d4565b338061005557604051631e4fbdf760e01b81526000600482015260240160405180910390fd5b61005e81610084565b50600180546001600160a01b0319166001600160a01b0392909216919091179055610104565b600080546001600160a01b038381166001600160a01b0319831681178455604051919092169283917f8be0079c531659141344cd1fd0a4f28419497f9722a3daafe3b4186f6b6457e09190a35050565b6000602082840312156100e657600080fd5b81516001600160a01b03811681146100fd57600080fd5b9392505050565b6105fe806101136000396000f3fe60806040526004361061007f5760003560e01c8063715018a61161004e578063715018a61461012a5780638da5cb5b14610141578063ca258c9f1461015f578063f2fde38b1461017f57600080fd5b80630357371d1461008b57806311eac855146100c057806312065fe0146100f85780633cfd1ccc1461011557600080fd5b3661008657005b600080fd5b34801561009757600080fd5b506100ab6100a636600461053d565b61019f565b60405190151581526020015b60405180910390f35b3480156100cc57600080fd5b506001546100e0906001600160a01b031681565b6040516001600160a01b0390911681526020016100b7565b34801561010457600080fd5b50475b6040519081526020016100b7565b34801561012157600080fd5b506101076102d7565b34801561013657600080fd5b5061013f610349565b005b34801561014d57600080fd5b506000546001600160a01b03166100e0565b34801561016b57600080fd5b506100ab61017a36600461053d565b61035d565b34801561018b57600080fd5b5061013f61019a366004610569565b61046d565b60006101a96104ab565b814710156101f55760405162461bcd60e51b8152602060048201526014602482015273496e73756666696369656e742062616c616e636560601b60448201526064015b60405180910390fd5b6000836001600160a01b03168360405160006040518083038185875af1925050503d8060008114610242576040519150601f19603f3d011682016040523d82523d6000602084013e610247565b606091505b505090508061028a5760405162461bcd60e51b815260206004820152600f60248201526e151c985b9cd9995c8819985a5b1959608a1b60448201526064016101ec565b836001600160a01b03167f221c08a06b07a64803b3787861a3f276212fcccb51c2e6234077a9b8cb13047a846040516102c591815260200190565b60405180910390a25060019392505050565b6001546040516370a0823160e01b81523060048201526000916001600160a01b0316906370a0823190602401602060405180830381865afa158015610320573d6000803e3d6000fd5b505050506040513d601f19601f82011682018060405250810190610344919061058d565b905090565b6103516104ab565b61035b60006104d8565b565b60006103676104ab565b60015460405163a9059cbb60e01b81526001600160a01b038581166004830152602482018590529091169063a9059cbb906044016020604051808303816000875af11580156103ba573d6000803e3d6000fd5b505050506040513d601f19601f820116820180604052508101906103de91906105a6565b6104215760405162461bcd60e51b81526020600482015260146024820152731554d110c81d1c985b9cd9995c8819985a5b195960621b60448201526064016101ec565b826001600160a01b03167f0c9a0dce7b92cf97c29c155081f230310c7fd7ca4f3808bf70d8733f5168950d8360405161045c91815260200190565b60405180910390a250600192915050565b6104756104ab565b6001600160a01b03811661049f57604051631e4fbdf760e01b8152600060048201526024016101ec565b6104a8816104d8565b50565b6000546001600160a01b0316331461035b5760405163118cdaa760e01b81523360048201526024016101ec565b600080546001600160a01b038381166001600160a01b0319831681178455604051919092169283917f8be0079c531659141344cd1fd0a4f28419497f9722a3daafe3b4186f6b6457e09190a35050565b6001600160a01b03811681146104a857600080fd5b6000806040838503121561055057600080fd5b823561055b81610528565b946020939093013593505050565b60006020828403121561057b57600080fd5b813561058681610528565b9392505050565b60006020828403121561059f57600080fd5b5051919050565b6000602082840312156105b857600080fd5b8151801515811461058657600080fdfea264697066735822122091c5711c746a7d2502d27b2c879b26f41214fb56845c2bcafabac72371fa8a6264736f6c63430008180033",
  "linkReferences": {},
  "deployedLinkReferences": {}
}